:020000040000FA
:100000004D2CFF3FFF3F0000000008000F3083121F
:100010000313FC004730FD00FD0B0C28FC0B0C28E3
:10002000000000000800213083120313FD00FD0BC7
:10003000172808007B15FB1F24280130F300F2016C
:10004000F101F001FA0DF20CFF300800F201F101AC
:10005000F001F801F30100300800FA1FF21300303C
:10006000080083120313F801F9011030FC00710D30
:10007000F80DF90D7408F8027508031C750FF902E4
:10008000031849287408F80775080318750FF9074D
:100090000310F00DF10DFC0B372808008316031335
:1000A000B51B55288312061157288312061583168F
:1000B000351B5D28831286115F28831286158316EF
:1000C000B51A65288312061267288312061683164E
:1000D000351A6D28831286126F28831286166A18C5
:1000E00073288617742886130617032006138316B1
:1000F000B5197D28831206117F28831206158316F1
:100100003519852883128611872883128615831650
:10011000B5188D28831206128F28831206168316AF
:1001200035189528831286129728831286166A1826
:100130009B2886179C2886130617032006136A1C23
:10014000A3280620A428132008000E3083120313CE
:10015000FD00FD0BA92800000800A0017208031D86
:10016000C2287108F2007008F100F001A0157208B1
:10017000031DC2287108F200F101A01120167208B7
:100180000319D0282008F302031D031CD4280310F0
:10019000F21BD828F00DF10DF20DF30BC828D4286E
:1001A0000130FC002620DB280230FC001A20DB286E
:1001B0000430FC002D200800831203136A108316FC
:1001C0003008B5004E206A140800831603139818EF
:1001D000EB280000E52830088312990008008316F8
:1001E0000313B301053033020318FD283308320727
:1001F000840020308000B30AF228330832078400DC
:100200008001B30333083207B4000A30F400F5016B
:100210003008F0003108F10031207808F00079084A
:10022000F1003030F0078316340884007008800035
:100230000A30F400F5013008F0003108F1003120F7
:1002400070088316B0007108B10000307106031DFC
:100250002B2900307006031D2E293029B3030229F3
:1002600008007B14FB1F3C29F201FA1FFF30F2004B
:10027000F100F000FA0DF20CFF300800FB14FB1F38
:100280004829FF30F300F200F100F000FA0DF20C03
:10029000FF30080083160313AC01AD012708AE0040
:1002A0002808AF0080302806F00080307002031D5F
:1002B0005B2900302702031869290130AC000030A7
:1002C000AD002708003CAE002808031C013EAF012A
:1002D000AF022E08B0002F08B1002908B200EF20AD
:1002E0000630AA000030AB002B08003C031D7A2921
:1002F0002A08003C031895292A082907F200013032
:100300002A02F0000030031C013E2B02F1007008AD
:10031000290784000008F00072088400700880003B
:100320000130AA02031CAB03742929088400203081
:1003300080002C082D040319B329AA01AB012A0857
:10034000290784000008203A031DAA29AA0A0319D4
:10035000AB0A9F290130AA02031CAB032A08290714
:1003600084002D30800008008312031367088A0080
:10037000660882000800831203136F0884000008D7
:100380000319CA296F08840000088316B000E5200D
:10039000EF0ABB29080083120313FB01730803193A
:1003A000082A7208FA00F2178E30F302F31F0B2AA4
:1003B000F309F30A08307302031CEE29F300F10D70
:1003C0007208F100F20108307302031CEE29F300F9
:1003D000F10DF1017308031D0310F62973080319C9
:1003E000F6290310F20CF10CF30BF1297B1B711CA5
:1003F000002A031C002AF10A0319F20AF21B172A29
:10040000FA1F1A2AF209F109F10A0319F20A1A2A43
:10041000F201F1011A2A7B14FB1F1D2AF201FA1FB7
:100420001D2AFF30F200F100FA0DF20C1D2A0130F6
:10043000FC001F2A0030FC001F2AFF30FC00FC08D3
:100440000319232A31217108F0007208F100080015
:10045000831203137008F8007108F000F101F20133
:10046000F301FB01FC019630F300FA01F01F3E2A74
:10047000F809F009F80A0319F00AFA177008F100F0
:100480007808F000F801F201AD200800831603138C
:10049000A701A80183126F08F2006F08F300720829
:1004A00084000008203A031D5B2A831627082804CD
:1004B000031D5B2A692A83160130A7000030A800BB
:1004C000720884000008F00073088400700880003F
:1004D000F30A7208F100F20A710884000008003A79
:1004E000031D4F2A83126F08F0000800882A80300D
:1004F00083160313A7009B2AC030A7009B2A9430C1
:10050000A7009B2AD430A7009B2A8030A7009B2AF3
:10051000831603132708013A0319772A2708023A9A
:1005200003197C2A2708033A03197F2A2708043A6B
:100530000319822A852A2803F0002708F00770088B
:10054000A7007008B5004E206A10EF016F088316EF
:100550002907840000080319B72A83126F0883163D
:10056000290784000008B000DC20EF0AA62A8312C5
:100570006A140800831203139F01C0309F0483167E
:100580001F179F1783126F08F000F00D7010F00D09
:100590007010F00D701070089F041F14A5201F1517
:1005A0001F1DD42A0000D02A1F101E08F100F001E0
:1005B00083161E08F0040030F104080083120313B0
:1005C000FB017308031D77080319352B72087606A3
:1005D000FA007708F3077E30031CF22AF3020318AF
:1005E000382BF52AF302031C3B2B7208F800710824
:1005F000FC007008FD00F817F6170310F201F10176
:10060000F0011830A0007D1C0F2B7408F00775084E
:100610000318750FF10776080318760FF207F20C2E
:10062000F10CF00CF80CFC0CFD0C0310A00B032BD0
:10063000F21B1F2BF80DF00DF10DF20DF3037B1BD8
:10064000701C312BF81F312BF00A0319F10A031922
:10065000F20A031D312BF20CF10CF00CF30A031912
:10066000382BFA1FF21300303D2B013026203D2B92
:1006700002303E213D2B04301A2000000800831276
:1006800003136E088400000803194E2B6E088400C3
:1006900000088316B000E520EE0A3F2B0D308316CC
:1006A000B000E52008008312031368088316A70032
:1006B000831269088316A800A030A9004A21080007
:1006C0002E3083120313EF00BB210B30FB002630CA
:1006D000FC005D30FD00FD0B6B2BFC0B6B2BFB0B53
:1006E0006B2B00000000A030EF00BB210B30FB00A3
:1006F0002630FC005D30FD00FD0B7C2BFC0B7C2BC1
:10070000FB0B7C2B0000000065088316B000E52081
:100710000B30FB002630FC005D30FD00FD0B8E2B06
:10072000FC0B8E2BFB0B8E2B0000000008008312AD
:100730000313EF01BA2270088312E8007108E90080
:100740002822E330F4003630F5007A30F6007D30B0
:10075000F700DE22CB217008E8007108E9000800EC
:10076000013083160313A7000130A8002130A9002F
:100770007622A030EF00462270088316A9000130CF
:10078000A7000D30A8007622DF308316B000DC20F1
:1007900043308316B000DC2020308316B000DC200C
:1007A000080083160313981690308312980083165E
:1007B0008717071383128C1EE02B1A08F000DA2B20
:1007C0000800FF3083120313EB00FF30EC00FF3012
:1007D000ED00FF309F01C0309F0483161F179F1745
:1007E00083121F1408008316031306138613861240
:1007F000061286110611831206138613061186113E
:1008000006128612062006200620061686160617F1
:1008100003200613062006170320061306200617DA
:10082000032006130620861206170320061306204F
:1008300006170320061306120615061703200613D3
:1008400006200611861606170320061386120617C1
:100850000320061306200617032006138616061724
:10086000032006130620861206170320061306151A
:1008700086150616861606170320061306206A1428
:100880000800B4218A110A128000840AE60A0319BA
:10089000E70AF003031D412C08001C25F323E12384
:1008A0003330831699001815D12397230230FB00AB
:1008B0000430FC00BA30FD00FD0B5C2CFC0B5C2C02
:1008C000FB0B5C2C000053230230FB000430FC00C7
:1008D000BA30FD00FD0B6A2CFC0B6A2CFB0B6A2C5A
:1008E0000000B0230230FB000430FC00BA30FD00F1
:1008F000FD0B782CFC0B782CFB0B782C0000623065
:10090000EE003F230B30FB002630FC005D30FD0085
:10091000FD0B882CFC0B882CFB0B882C00000000A6
:100920004530EE003F230B30FB002630FC005D30ED
:10093000FD00FD0B992CFC0B992CFB0B992C000056
:1009400000003B30EE003F230B30FB002630FC0064
:100950005D30FD00FD0BAA2CFC0BAA2CFB0BAA2C76
:10096000000000004A30EE003F230B30FB00263031
:10097000FC005D30FD00FD0BBB2CFC0BBB2CFB0B0E
:10098000BB2C0000000060236630FB007630FC00CA
:10099000C130FD00FD0BCA2CFC0BCA2CFB0BCA2C72
:1009A000552CD12CFF3FFF3FFF3FFF3FFF3F54340B
:1009B00045344D3450344534523441345434553434
:1009C000523445343D340034743465346D347034FD
:1009D00065347234613474347534723465343D3442
:1009E0000034413454342B3443344D34473446348A
:1009F0003D343134003441345434453430340034DF
:100A0000413454342B3443344D34473453343D341F
:100A100094342B3439343134373438343734373430
:100A20003034323433343334343431349434003465
:100A30004134543400341A34213084004530831258
:100A40000313F000D730E6000430E700412408002B
:100A5000FF3FFF3FFF3FFF3FFF3FFF3FFF3FFF3FA6
:100A6000FF3FFF3FFF3FFF3FFF3FFF3FFF3FFF3F96
:100A7000FF3FFF3FFF3FFF3FFF3FFF3FFF3FFF3F86
:100A8000FF3FFF3FFF3FFF3FFF3FFF3FFF3FFF3F76
:04400E00793FFF3FB8
:00000001FF
